:100000000C9462000C947F000C947F000C947F0091
:100010000C947F000C947F000C947F000C9453038D
:100020000C947F000C947F000C947F000C947F0054
:100030000C947F000C947F000C947F000C947F0044
:100040000C9409030C947F000C947F000C947F00A7
:100050000C947F000C947F000C947F000C947F0024
:100060000C947F000C947F00000000002400270007
:100070002A000000000023002600290000000008DC
:10008000000201000003040700000000000000005F
:10009000010204081020408001020408102001021F
:1000A0000408102000000000250028002B00040494
:1000B0000404040404040202020202020303030310
:1000C0000303020011241FBECFEFD8E0DEBFCDBF77
:1000D00011E0A0E0B1E0E6EEF9E002C005900D927B
:1000E000A230B107D9F721E0A2E0B1E001C01D9232
:1000F000AE31B207E1F70E94AF030C94F1040C9407
:100100000000833081F028F4813099F08230A9F02A
:1001100008958730A9F08830C9F08430B1F4809117
:1001200080008F7D03C0809180008F778093800056
:10013000089584B58F7784BD089584B58F7DFBCFF6
:100140008091B0008F778093B00008958091B000C7
:100150008F7DF9CFCF93DF93282F30E0F901E4585A
:10016000FF4F8491F901E057FF4FD491F901E25517
:10017000FF4FC491CC23A1F081110E948100EC2F8C
:10018000F0E0EE0FFF1FEE58FF4FA591B491EC91F8
:10019000ED2381E090E009F480E0DF91CF910895B4
:1001A00080E090E0FACF1F93CF93DF93282F30E0C9
:1001B000F901E458FF4F8491F901E057FF4FD491C2
:1001C000F901E255FF4FC491CC23A9F0162F8111FC
:1001D0000E948100EC2FF0E0EE0FFF1FEC55FF4F67
:1001E000A591B4918FB7F894EC91111108C0D095F6
:1001F000DE23DC938FBFDF91CF911F910895DE2B1B
:10020000F8CFCF93DF9390E0FC01E057FF4F2491AC
:1002100082559F4FFC0184918823D1F090E0880F94
:10022000991FFC01E859FF4FA591B491FC01EC55D1
:10023000FF4FC591D49161110EC09FB7F8948C9176
:10024000E22FE0958E238C932881E223E8839FBFE1
:10025000DF91CF9108958FB7F894EC91E22BEC9356
:100260008FBFF6CF4F925F926F927F928F929F9245
:10027000AF92BF92CF92DF92EF92FF920F931F93B4
:10028000CF938C016A017B0180910001882399F052
:100290008F3F09F45CC0CF911F910F91FF90EF90B9
:1002A000DF90CF90BF90AF909F908F907F906F9096
:1002B0005F904F900895E2ECF0E0C491C7FDEBCF62
:1002C00061E080E00E9401012801712C612CCC23A7
:1002D000F1F0980150E040E0C23009F0A6C02801DA
:1002E0003A0160E970ED83E090E00E94B8044901B2
:1002F0005A0181E0881A9108A108B10893E08FEFB4
:1003000088169104A104B10409F00CF4DCC068E47F
:1003100078EE81E090E0A30192010E94B8044901C7
:100320005A0181E0881A9108A108B10894E0C1112E
:10033000CAC085B5887F836085BD2FEF3FEFA901D7
:10034000C114D104E104F10409F4D1C08CC01092AD
:100350000001E2ECF0E0C491CF3F09F49CCFC13042
:1003600021F150F0C23009F43EC0C7FD94CF61E0E6
:1003700080E00E940101ADCF14BC15BC84B5826041
:1003800084BD85B5816085BDEEEAF0E0E491F0E0E2
:10039000EE0FFF1FEC55FF4F85919491E0E9F0E0DF
:1003A000E491E0931101C0E08BCF10928000109295
:1003B000810080918100886080938100809181001C
:1003C000816080938100EEEAF0E0E491F0E0EE0FCE
:1003D000FF1FEC55FF4F85919491E0E9F0E0E49127
:1003E000E09310016DCF1092B0001092B100809197
:1003F000B00082608093B0008091B10081608093F2
:10040000B100EEEAF0E0E491F0E0EE0FFF1FEC55F2
:10041000FF4F8591949190930F0180930E01E0E935
:10042000F0E0E491E0930D014BCF60E072E18AE7E8
:1004300090E00E94B80449015A0181E0881A9108AD
:10044000A108B108C13009F044C080918100887FC3
:100450008160809381002FEF3FEFA901C114D10487
:10046000E104F10471F0D801AA0FBB1FA7019601A6
:100470000E94D70428EE33E040E050E00E9496044A
:1004800030C09092890080928800209316013093AA
:100490001701409318015093190180916F008260F9
:1004A00080936F00F8CE8092B300209312013093B6
:1004B00013014093140150931501809170008260E4
:1004C00080937000E8CE8091B100887F892B809363
:1004D000B1002FEF3FEFA901C114D104E104F104F1
:1004E00011F6C13071F2C230F1F2C111D4CE87BC25
:1004F00020931A0130931B0140931C0150931D015E
:1005000080916E00826080936E00C5CE3FB7F894F4
:100510008091090190910A01A0910B01B0910C0109
:1005200026B5A89B05C02F3F19F00196A11DB11D4E
:100530003FBFBA2FA92F982F8827BC01CD01620F8A
:10054000711D811D911D42E0660F771F881F991F45
:100550004A95D1F708958F929F92AF92BF92CF9212
:10056000DF92EF92FF924B015C010E9486026B01C9
:100570007C010E9486026C197D098E099F09683EE4
:10058000734081059105A8F321E0821A9108A10822
:10059000B10888EEC80E83E0D81EE11CF11C81145E
:1005A0009104A104B10429F7FF90EF90DF90CF9060
:1005B000BF90AF909F908F90089590910001891304
:1005C0000BC0E2ECF0E0E4919FEF90930001E1308A
:1005D00049F028F0E23061F060E00C94D300109212
:1005E0006E00FACF90916F009D7F90936F00F4CFD3
:1005F000909170009D7F9093700091E09093B00077
:100600009091B100987F94609093B1001092B300E4
:10061000E3CF1F920F920FB60F9211242F933F93A7
:100620008F939F93AF93BF938091050190910601A3
:10063000A0910701B09108013091040123E0230F3C
:100640002D3758F50196A11DB11D2093040180930B
:10065000050190930601A0930701B09308018091D2
:10066000090190910A01A0910B01B0910C01019632
:10067000A11DB11D8093090190930A01A0930B0164
:10068000B0930C01BF91AF919F918F913F912F91AA
:100690000F900FBE0F901F90189526E8230F02961B
:1006A000A11DB11DD2CF1F920F920FB60F92112430
:1006B0002F933F934F935F936F937F938F939F936A
:1006C000AF93BF93EF93FF93809112019091130129
:1006D000A0911401B0911501892B8A2B8B2BD1F19C
:1006E00090910D01E0910E01F0910F018081892719
:1006F00080838091120190911301A0911401B09117
:100700001501181619061A061B069CF48091120191
:1007100090911301A0911401B09115010197A109C5
:10072000B1098093120190931301A0931401B09327
:100730001501FF91EF91BF91AF919F918F917F91A3
:100740006F915F914F913F912F910F900FBE0F903E
:100750001F901895809100010E94DD02EACF7894E5
:1007600084B5826084BD84B5816084BD85B58260B6
:1007700085BD85B5816085BD80916E008160809367
:100780006E001092810080918100826080938100D0
:1007900080918100816080938100809180008160E0
:1007A000809380008091B10084608093B10080913B
:1007B000B00081608093B00080917A008460809363
:1007C0007A0080917A00826080937A0080917A002A
:1007D000816080937A0080917A00806880937A00AB
:1007E0001092C10060E084E00E94010160E083E0BB
:1007F0000E94010160E085E00E94010161E082E069
:100800000E94010161E081E00E94010161E080E05D
:100810000E94010160E082E00E94D30060E081E07C
:100820000E94D300C0E0D0E083E00E94AA000197BC
:10083000F1F480910201909103010197C1F461E00C
:1008400082E00E94D30040E050E0BA0185E594E0E8
:100850000E94320168EE73E080E090E00E94AB02FB
:1008600080E00E94DD02109203011092020184E0F8
:100870000E94AA0081309105B1F490930301809306
:10088000020160E082E00E94D30061E081E00E940A
:10089000D30064EF71E080E090E00E94AB0260E082
:1008A00081E00E94D30085E00E94AA00019791F5A3
:1008B0008091020190910301019761F561E081E06F
:1008C0000E94D30046E950E060E070E080E793E0EA
:1008D0000E9432016CE271E080E090E00E94AB0285
:1008E00046E950E060E070E085E594E00E94320166
:1008F0006CE271E080E090E00E94AB0246E950E0DB
:1009000060E070E087E994E00E94320110920301F8
:10091000109202016AE070E080E090E00E94AB0279
:10092000209709F481CF0E9400007ECFA1E21A2E09
:10093000AA1BBB1BFD010DC0AA1FBB1FEE1FFF1F83
:10094000A217B307E407F50720F0A21BB30BE40BD3
:10095000F50B661F771F881F991F1A9469F760951A
:100960007095809590959B01AC01BD01CF010895D4
:10097000052E97FB1EF400940E94CF0457FD07D06C
:100980000E94960407FC03D04EF40C94CF045095BB
:100990004095309521953F4F4F4F5F4F089590956B
:1009A0008095709561957F4F8F4F9F4F08950E945E
:1009B000E204A59F900DB49F900DA49F800D911D02
:1009C00011240895A29FB001B39FC001A39F700D91
:1009D000811D1124911DB29F700D811D1124911D47
:0609E0000895F894FFCF1A
:0209E600FF0010
:00000001FF
